:0E0BD10080828486888A8C81838587898B8DBB
:10084A00072A505916070502240134000135000110
:10085A002900012600012700012801013F01C102E8
:10086A00C103C101C100013111012111013919016D
:0E087A0025190138040123040136FF0122FF75
:0B0BEB00EF1FAC0670011E4C70F622DC
:100A2F00E4FFC2A9C2C4D2C220B2027F0520B30222
:100A3F007F04D2C4C2C220B2027F0920B3027F0852
:020A4F00D2A92A
:010A51002282
:1006C000E526600302074E7526017F41120A08EFF6
:1006D000D394B44004C2028002D202300141E53C0E
:1006E000D394B4400CEFD394B440067C007D0180D9
:1006F000047C007D00E53CC39478500CEFC39478F3
:1007000050067A007B0180047A007B00EA4CFCEB07
:100710004D4C6004D2008007C200E4F53DF53E8FE9
:100720003CD201AC07E41201BEE4FBFA79A07840A8
:1007300012000EE4FBFA797F7843120117E4FBFA0A
:0E07400079C8784212000E1201F28E438F44E7
:01074E002288
:100ACA001209E17FCC120A727F44120A72E4FD7F96
:0A0ADA00607EEA120BEB0DBD08F57B
:010AE40022EF
:1007DB00E529706A7529011209E17FCC120A727F33
:1007EB0044120A721209E17FCC120A727FBE120AFE
:1007FB0072120AFF8F15120AFF7532008F33E53321
:10080B00F532E515F533E53254F87032AC32AD33D1
:10081B001201B9E4FBFA7980783D12000E8F148E29
:10082B00138D128C11E4FFFE7D207C41AB14AA13B7
:0E083B00A912A81112000E1201F28E328F3394
:01084900228C
:1009B600E4FD7F8E120B88E4F511E511900BD193BF
:1009C600FF742A2511F8E6FD120B880511E511C3FF
:0B09D600940740E67D807F8E020B88B6
:100896007F811209568F2A7F831209568F2B7F85F7
:1008A6001209568F2CE52AC4540F75F00AA4FFE5E9
:1008B6002A540F2FF537E52BC4540F75F00AA4FF01
:1008C600E52B540F2FF53BE52CC4540F75F00AA405
:0908D600FFE52C540F2FF53A2226
:10058400E527600302062E752701E53AC39531403D
:100594000CE53A940850067E007F0180047E007FBB
:1005A40000E531C394087C0040047D0180027D0095
:1005B400EC4EFEED4F4E600CE53AC39531400553C9
:1005C40036FE8003433601E53975F00AA4FFC3E51E
:1005D400339FE53295F050055336FD8003433602D0
:1005E4003003055336FB8003433604300223E538D9
:1005F40014FF7401A807088002C333D8FCF4522204
:10060400E52254F8FFE53654074FF5367522FF808E
:100614000F7522FFE52254F8FFE53654074FF536EF
:0B062400E536FD7C007F041208DF2299
:10049E00E5356003020583753501120A2F8F42E59B
:1004AE00416542FF5542F540E541F45FF524854232
:1004BE0041E528B40206E53F64016003852131E57C
:1004CE0028B40206E53F64026003852539E528B4A9
:1004DE000206E53F64036003852338E540B4040D4E
:1004EE000528E528B40303752801753F01E540B4DE
:1004FE00050A053FE53FB40403753F01E540640876
:10050E007035E5286402702FE53FB4010AE52170CD
:10051E0004F52180021521E53FB4020AE525700499
:10052E00F52580021525E53FB4030CE523B404053B
:10053E0075230480021523E54064097038E52864AC
:10054E00027032E53FB4010CE521B4170575211791
:10055E0080020521E53FB4020CE525B4630575253F
:10056E006380020525E53FB4030BE523B40804754B
:06057E00230822052322E0
:1002D600E534600302049D753401120896E528642E
:1002E60001600302040AE53F64017045E53A75F0D2
:1002F6000A84900B7493F509E53A75F00A84E5F0E3
:1003060093F50A750BBFE53B75F00A8493F50CE58A
:100316003B75F00A84E5F093F50D750EBFE537756C
:10032600F00A8493F50FE53775F00A84E5F093F546
:1003360010E53F640270607509C6750AFF750BFF0C
:10034600750CFF750DFFAE32AF33FC7D6412027380
:1003560074742FF582740B3EF583E493F50EAE327A
:10036600AF337C007D0A1202737C007D0A12027391
:10037600747E2DF582740B3CF583E493F50FAE3253
:10038600AF337C007D0A12027374742DF582740BF0
:100396003CF583E493F510E53F64037067750986C1
:1003A600750AFF750EFF750FFFAE43AF44FC7D6403
:1003B600120273747E2FF582740B3EF583E493F577
:1003C6000BAE43AF447C007D0A1202737C007D0AAB
:1003D60012027374742DF582740B3CF583E493F565
:1003E6000CAE43AF447C007D0A12027374742DF583
:1003F60082740B3CF583E493F50DA202E433900B73
:100406007493F510E5286402600302049DE53F64D9
:1004160001702C75098C750BFF750CFF750DFF753A
:100426000EFF900B7593F50AE52175F00A84900B83
:100436007493F50FE52175F00A84E5F093F510E560
:100446003F6402702C75098C750BFF750CFF750DDA
:10045600FF750EFF900B7693F50AE52575F00A8475
:10046600900B7493F50FE52575F00A84E5F093F586
:1004760010E53FB4032175098C750BFF750CFF75EC
:100486000DFF750EFF750FFF900B77E493F50AE5E8
:0804960023900B7493F5102272
:100B9C00538E7F5389F0758A18758CFCD28CD2A930
:030BAC00D2AF22A3
:100A52007DFF7C007F041208DFE4FDFC7F051208A5
:100A6200DF120B9C120ACA1209B6E4F5290207DB4F
:100B6000120A521207DB1206C01205841202D612B4
:040B7000049E80EF70
:03000B0002062FBB
:10062F00C0E0C0F0C083C082C0D075D000C000C091
:10063F0001C002C003C004C005C006C0070534E5F1
:10064F0034B40A037534000535E535B40A0375353E
:10065F00000529E529B4C8037529000526E526B448
:10066F001E037526000527E527B4050375270030FF
:10067F000008053EE53E7002053DE53EB4B814E5C1
:10068F003DB40B0F753D00753E00300204D2038060
:10069F0002C20312091DD007D006D005D004D00323
:1006AF00D002D001D000D0D0D082D083D0F0D0E013
:0106BF003208
:100B7400C0F9A4B0999282F8809040792430191277
:040B840002780010E3
:0D0888000809FFFFFFFFFFFFFFFF01080051
:0600030000007F26DFFE75
:0100090022D4
:1008DF0053A01F8D80EF24FB601414601B14602243
:1008EF0024037026E5A0541F4480F5A0801CE5A0CA
:1008FF00541F44A0F5A08012E5A0541F44C0F5A0DA
:0E090F008008E5A0541F44E0F5A053A01F226D
:10091D007DFF7C007F071208DF74017E00A80808A8
:10092D008005C333CE33CED8F9FDAC067F06120851
:10093D00DF74092508F8E6FD7C000F1208DF0508B5
:08094D00E508B40803E4F50815
:01095500227F
:100BAF00E4FEC297EF1392A3EFC313FFD2970EBECB
:020BBF0008F03C
:010BC1002211
:100B8800C29300C29700D29300120BAFAF05120BAD
:040B9800AFC2932233
:10095600E4FDC29300C29700D29300120BAFE4FFEE
:10096600C297EDC313FD30A303430580D2970FBF93
:1009760008EEC29300C29700D29700C2A300D2A38A
:0309860000AF05BA
:01098900224B
:040AE5007F057E000B
:100AE900EF1FAA0670011E4A600BE4FDEDC3940CCA
:050AF90050EE0D80F736
:010AFE0022D5
:020A7200A907D2
:100A7400E4FBC294E9139294120AE5D294E9C313F5
:0C0A8400F90BBB08ED7F057E00020AE9BB
:100AFF00E4FBC294ECC313FCD29430940343048000
:090B0F00120AE50BBB08EBAF0470
:010B180022BA
:1009E100C204D2947F0C7E00120AE9C2947F507E29
:1009F10000120AE9D2947F0A7E00120AE9A29492B7
:060A010004120AE5A20444
:010A070022CC
:040B1900D2A07F0ADD
:100B1D00000000000000000000000000000000AE1A
:060B2D00071FEE70EB2231
:0F0BC200D2A1120B19C2A17F0A120B1DC2A022D1
:0C0BDF00C2A1120B19D2A17F0A020B1D4B
:02098A00AD07B7
:10098C00E4FCC2A07F0A120B1DED30E704D2A1805B
:10099C0002C2A17F0A120B1DD2A0ED25E0FD7F0A39
:0909AC00120B1D0CBC08DBC2A0FB
:0109B500221F
:100A9000E4FC120B19ED25E0FD30A103430501C272
:0C0AA000A07F0A120B1D0CBC08E8AF057B
:010AAC002227
:0B0AAD0012098A120AB8AF0312098A6E
:100AB800120B19A2A1E433FDC2A07F0A120B1DAFCD
:010AC8000528
:010AC900220A
:100B3300C2A0EF24FF92A17F0A120B1D120B19C250
:080B4300A0D2A17F0A020B1DE4
:100B4B00AB07120BC27F9012098A120AB87F4012B0
:050B5B000AAD020BDFF2
:020A0800AB073A
:100A0A00E4FD120BC27F90120AAD120BC27F911243
:100A1A00098A120AB8120A90AD077F01120B331223
:040A2A000BDFAF052A
:010A2E0022A5
:10000E00EC4D6011E8497017ED33EC3304600DE4EC
:10001E00FCFFFEFD22E933E8330470F802025E12A3
:10002E00022958046009E4CC2481500628500902A4
:10003E000268284003020265C0E0EB4A7044B980B2
:10004E0006D0E0FB020254EF4E701CBD8008EBFFA1
:10005E00EAFEE9FD80EBE98DF0A4FEE5F00200F783
:10006E00E9CDF9EAFEEBFFEF89F0A4FCE5F0CE89CD
:10007E00F0A42EFFE435F0CD89F0A42DFEE435F08A
:10008E008067EF4E7005BD80D780C3EF8BF0A4ACB8
:10009E00F0EE8BF0A42CFCE435F0F8EF8AF0A42CF3
:1000AE00E5F038FCE433CB8DF0A42CFCE5F03BF806
:1000BE00EE8AF0A42CFCE5F038F8E433CF89F0A4F6
:1000CE002CFCE5F038CF3400CE89F0A42FFFE5F0FC
:1000DE003EFEE433C98DF0A42EFEE5F039CD8AF054
:1000EE00A42FFFE5F03EFEE43DFD33D0E0FB5007CC
:1000FE000BBB000F020268EC2CFCEF33FFEE33FE5D
:06010E00ED33FD0202408A
:10011400020268EC5D046005E85904700302025EA3
:10012400120229580460F6EC4860F2EC7004FDFEFB
:10013400FF22C860DB2481C85009C39860025006BE
:100144000202659850CAF582E9294B4A7005AB82D0
:1001540002025475F0007C1A7880C3EF9BEE9AED8E
:1001640099400DC3EF9BFFEE9AFEED99FDE842F036
:10017400DC23ACF0D0E0FFD0E0FED0E0FDAB822089
:10018400E7101BEB60BAEC2CFCEF33FFEE33FEED13
:1001940033FD020240E803F830E705C0F075F000D3
:1001A400EF2FFFEE33FEED33FD40B830E7C280AAF7
:1001B40075F020800E75F010800575F0087D007EC6
:1001C400007F003392D530D5031202C8EC334010BF
:1001D400EF33FFEE33FEED33FDEC33FCD5F0ED22CF
:0E01E400E5F0247EA2D513CC92E7CDCEFF220B
:1001F200EDD2E7CD33EC3392D524814006E4FFFE05
:10020200FDFC22FCE4CFCECDCC24E0501174FF8063
:10021200EDC3CC13CCCD13CDCE13CECF13CF047000
:07022200F030D5DE0202C836
:10022900E9D2E7C933E833F892D5EDD2E7CD33EC1B
:0702390033FC5002B2D52294
:10024000EC30E7100FBF000C0EBE00080DBD00041F
:100250000BEB6014A2D5EB13FCED92E7FD2274FFCB
:10026000FCFDFEFF22E480F8A2D574FF13FC7D8024
:03027000E480EF38
:0300000002074FA5
:0C074F00787FE4F6D8FD7581440207961F
:10027300BC000BBE0029EF8DF084FFADF022E4CC6F
:10028300F875F008EF2FFFEE33FEEC33FCEE9DEC38
:10029300984005FCEE9DFE0FD5F0E9E4CEFD22ED7E
:1002A300F8F5F0EE8420D21CFEADF075F008EF2FC8
:1002B300FFED33FD4007985006D5F0F222C398FDB9
:0502C3000FD5F0EA2256
:0E02C800C3E49FFFE49EFEE49DFDE49CFC2247
:10075B00020B60E493A3F8E493A34003F68001F249
:10076B0008DFF48029E493A3F85407240CC8C3339F
:10077B00C4540F4420C8834004F456800146F6DF6E
:10078B00E4800B010204081020408090084AE47EAC
:10079B00019360BCA3FF543F30E509541FFEE49363
:1007AB00A360010ECF54C025E060A840B8E493A32A
:1007BB00FAE493A3F8E493A3C8C582C8CAC583CA55
:1007CB00F0A3C8C582C8CAC583CADFE9DEE780BE0D
:010895000062
:00000001FF
