:100C0B00012C00012D000126000129000125010105
:100C1B003D01013901C101C103012B23012A5A01F5
:100C2B003028012F06012200013301013E00012E65
:0A0C3B00FF013700C102C104C1002F
:10094C00E525B40107532EFEC2048021E52564047D
:10095C007018E53DB40113D204300011C200E52E2D
:10096C0020E0028005532EFE8003432E01E525B4C2
:10097C000207532EFDC2048021E52564047018E59E
:10098C003DB40213D204300011C200E52E20E10266
:10099C008005532EFD8003432E02E525B403075337
:1009AC002EFBC2048021E52564047018E53DB403D8
:1009BC0013D204300011C200E52E20E20280055350
:1009CC002EFB8003432E04E533B40405532EF7802D
:1009DC0003432E08E52BD395304005532EEF8003AF
:1009EC00432E10300305532EDF8003432E20E52EBB
:0809FC00FD7C007F0402001ED7
:100C5300E52F75F00AA4FFD3E5329FE53195F04007
:100C63001943221020030F0537E537FD7C00E4FF0D
:100C7300120D48120E99D2038005C2035322EFE5E9
:090C830022FD7C007F0502001E29
:100D6C00E52A75F064A4FFD3E5289FE52795F040AC
:100D7C00057533048003753301E522FD7C007F0586
:030D8C0002001E44
:100CC500E4E52970277529017F43120D1EAC07E461
:100CD50012030EE4FBFA794C7842120267E4FBFA40
:0C0CE50079A0784112015E1203428F2BAF
:010CF10022E0
:10089000E52BD395305006751533020947E52BC378
:1008A000945040067515FF020947AC2BE412030E65
:1008B000E4FBFA7980784012015EC004C005C006EE
:1008C000C007C374509530FDE49400FCE4120309A2
:1008D000A804A905AA06AB07D007D006D005D00406
:1008E000120267E4FBFA79A0784012006DC004C0E0
:1008F00005C006C007C374509530FDE49400FCE4C5
:10090000120309A804A905AA06AB07E4FFFE7DA00F
:100910007C43120267A804A905AA06AB07D007D03A
:1009200006D005D0041200698F148E138D128C111D
:10093000E4FFFE7D4C7C42AB14AA13A912A811124D
:0C094000015E1203428F15AF15020E2558
:10000300E4F511C29012005CD29012005C0511E578
:0600130011C3940840ED4A
:0100190022C4
:100BBF00E5267047752601E4F5D9F5E9F5F9C2AFD9
:100BCF00120003D2AFD2DE30910330DFFAC2DE2043
:100BDF00DF21AFF9EFFEADE9EDFFAC06E41203093B
:100BEF007B967A43798B783C12015E1203428E31E9
:0B0BFF008F3222C2DF7531007532FF1B
:010C0A0022C7
:100DE000E4FF20B3027F0420B2027F0520B1027F1E
:060DF0000620B0027F079F
:010DF60022DA
:10076E00E52D600302088F752D01120DE08F3AE51D
:10077E0038653AFF553AF536E53AF45FF521853A94
:10078E0038E536B4040F0525E525C39405400375F9
:10079E002501753D01E536B4050FE525B4040A05BE
:1007AE003DE53DB40403753D01E53664067055E53F
:1007BE0025B40413E53DB4010E7405252AF52AC3AC
:1007CE00947D4003752A0AE525B40413E53DB40271
:1007DE000E740A2530F530C39446400375300AE591
:1007EE0025B40411E53DB4030C052FE52FC3940D7C
:1007FE004003752F01E525B4030A053DE53DB4031D
:10080E0003753D01E53664077057D201E525B40442
:10081E0013E53DB4010E74FB252AF52AD394055039
:10082E0003752A78E525B40413E53DB4020E74F67B
:10083E002530F530D39400500375303CE525B404D3
:10084E0011E53DB4030C152FE52FD394005003751D
:10085E002F0CE525B4010A053DE53DB40303753DB6
:10086E0001E521B4071BC201E4F534F53530021160
:10087E00C202F537E537FD7C00E4FF120D48120E7B
:02088E009922AD
:10042600E52C600302076D752C01120890120C531F
:10043600E525640160030205AF75098E750AFF752F
:100446000BFFE53D64016003020510D3E528940F18
:10045600E5279427401BAE27AF287C277D10120383
:10046600C3743B2FF582740E3EF583E493F50C803E
:1004760003750CFFD3E52894E7E52794034022AEE5
:1004860027AF287C037DE81203C37C007D0A120394
:10049600C3743B2DF582740E3CF583E493F50D8011
:1004A60003750DFFD3E5289463E52794004022AE3B
:1004B60027AF287C007D641203C37C007D0A1203EB
:1004C600C3743B2DF582740E3CF583E493F50E80E0
:1004D60003750EFFD3E5289409E52794004022AE64
:1004E60027AF287C007D0A1203C37C007D0A120315
:1004F600C3743B2DF582740E3CF583E493F50F80AF
:1005060003750FFFAE27AF28807EE53D64026003CA
:100516000205AF750CFF750DFFD3E528940FE5278F
:100526009427401BAE27AF287C277D101203C37487
:100536003B2FF582740E3EF583E493F50E8003752A
:100546000EFFD3E52894E7E5279403401EAE27AFB8
:10055600287C037DE81203C37C007D0A1203C37462
:10056600452DF582740E3CF5838003900E45E49389
:10057600F50FD3E5289463E52794004022AE27AF14
:10058600287C007D641203C37C007D0A1203C374B9
:100596003B2DF582740E3CF583E493F510800A90AA
:1005A6000E3BE493F510750FFFE52564027029757F
:1005B6000989750AFF750BFF750CFF750DFF750E22
:1005C600FFE52B75F00A84900E3B93F50FE52B752E
:1005D600F00A84E5F093F510E5256403600302064E
:1005E600AE750988750AFF750BFF750CFF750DFF53
:1005F600E53D6401705BD3E5329463E531940040D8
:100606001BAE31AF327C007D641203C3743B2FF501
:1006160082740E3EF583E493F50E8003750EFFD3C8
:10062600E5329409E53194004022AE31AF327C00C8
:100636007D0A1203C37C007D0A1203C3743B2DF5A9
:1006460082740E3CF583E493F50F8043750FFF80AB
:100656003EE53D64027051AE31AF32FC7D6412035B
:10066600C374452FF582740E3EF583E493F50EAE02
:1006760031AF327C007D0A1203C37C007D0A12036F
:10068600C3743B2DF582740E3CF583E493F50FAEEF
:1006960031AF327C007D0A1203C3743B2DF58274A0
:1006A6000E3CF583E493F510E52564046003020728
:1006B6006D75098C750BFF750CFF750DFFE53D64B7
:1006C60001704AE53D900E3B93F50AE52AD3946303
:1006D600400BE52A75F0648493F50E8003750EFFD2
:1006E600E52AD394094011E52A75F00A8475F00AC3
:1006F60084E5F0900E458004900E45E493F50FE5F1
:100706002A75F00A84E5F0900E3B93F510E53DB4AA
:10071600021D900E3B93F50A750EFFE53075F00A43
:100726008493F50FE53075F00A84E5F093F510E54E
:100736003D64037032E53D900E3B93F50A750EFF5E
:10074600E52FD39409400BE52F75F00A84900E45EA
:100756008004900E45E493F50FE52F75F00A84E5C5
:08076600F0900E3B93F5102208
:100DC700758915E4F58CF58D758DFF758B38D2AF68
:090DD700D2ABD2AFD28CD28E2235
:100E4F00538EFB75D71875D6FC438E1043AF04D263
:020E5F00AF22C0
:100DF7007DFF7C007F0412001EE4FDFC7F051200CE
:070E07001E120DC7020E4F81
:100E6100120DF7120BBF12076E120426120CC58069
:010E7100F28E
:03001B00020AA432
:100AA400C0E0C0F0C083C082C0D075D000C000C018
:100AB40001C002C003C004C005C006C007758DFF95
:100AC400758B38053EE53E75F0068485F03E053CA1
:100AD400E53C7002053BFFAE3BBE131FBF881C758F
:100AE4003B00753C00AF8C7527008F28E528AD8A44
:100AF400F527EDF528758C00758A00E53ED395330E
:100B0400500543222080035322DFE522FD7C007F31
:100B14000512001ED007D006D005D004D003D002A1
:0F0B2400D001D000D0D0D082D083D0F0D0E0323A
:03006300020A048A
:100A0400C0E0C0F0C083C082C0D075D000C000C0B8
:100A140001C002C003C004C005C006C007052CE520
:100A24002CB40A03752C00052DE52DB40A03752D8D
:100A3400000526E526B4C8037526000529E529B472
:100A440005037529003001080535E53570020534C4
:100A54003004080524E52470020523E52464644574
:100A6400237006F523F524D200C3E53594E8E53474
:100A740094034008D202753400753500120C8C12B0
:100A84000D6C12094CD007D006D005D004D003D089
:100A940002D001D000D0D0D082D083D0F0D0E032C8
:100E3B00C0F9A4B0999282F88090407924301912AD
:040E4B000278001019
:0D0C45000809FFFFFFFFFFFFFFFF01080090
:06005C0000007F26DFFE1C
:01006200227B
:080E99007F3B7E5ADEFEDFFC08
:010EA100222E
:10001E0053A01F8D80EF24FB601414601B1460220C
:10002E0024037026E5A0541F4480F5A0801CE5A093
:10003E00541F44A0F5A08012E5A0541F44C0F5A0A3
:0E004E008008E5A0541F44E0F5A053A01F2237
:100C8C007DFF7C007F0712001E74017E00A80808FF
:100C9C008005C333CE33CED8F9FDAC067F061200E7
:100CAC001E74092508F8E6FD7C000F12001E0508CD
:080CBC00E508B40803E4F508A3
:010CC400220D
:040E8100D2A07F0577
:080E850000AE071FEE70F92218
:0F0E7200D2A1120E81C2A17F05120E85C2A0224D
:0C0E8D00C2A1120E81D2A17F05020E85C9
:100E0E00C2A0A20592A17F05120E85120E81C2A06C
:070E1E00D2A17F05020E8541
:0A0DAC00AB07120E727F90120CF2DA
:100DB600120E81A2A19205C2A07F05120E85A20580
:010DC600220A
:020CF200AD074C
:100CF400E4FCC2A07F05120E85ED30E704D2A1808A
:100D040002C2A17F05120E85D2A0ED25E0FD7F056C
:090D1400120E850CBC08DBC2A024
:010D1D0022B3
:100D8F00E4FC120E81ED25E0FD30A103430501C205
:0C0D9F00A07F05120E850CBC08E8AF0513
:010DAB002225
:100D1E00120DACAF03120CF2120DB6120E727F91C1
:100D2E00120CF2120DB6C2AF120D8FAD07D2AFD2AA
:090D3E0005120E0E120E8DAF0518
:010D47002289
:100E2500120DAC7F40120CF2120DB6AF03120CF28C
:060E3500120DB6020E8D45
:100D4800AB05AA04A907120E727FA0120CF2120DAD
:100D5800B6AF01120CF2120DB6AF03120CF2120D5F
:040D6800B6020E8D34
:100066000203AEE86480F8E933E83360110460F017
:10007600ED33EC337009E8FCE9FDEAFEEBFF220400
:1000860060DED3EB9FEA9EE99DE8C2E78CF0C2F7FB
:1000960095F0400CE8CCF8E9CDF9EACEFAEBCFFBC7
:1000A60012037985D0F05804700320D5B3E80470A4
:1000B600075002B2D50203B892D5EC0460F7E4CC3F
:1000C600C0E0C398F8603B94186008400DD0E0FB90
:1000D600020390E4FBFAC9FC8028E830E406E4C990
:1000E600FBE4CAFCE830E305E4C9CACBFCE85407E4
:1000F6006010F8C3E913F9EA13FAEB13FBEC13FCEF
:10010600D8F130F52FC3E49CFCEF9BFFEE9AFEED91
:1001160099FDD0E0FBEF4E4D4C701222DB0302033B
:10012600B5EC2CFCEF33FFEE33FEED33FDED30E79F
:10013600EB020390EF2BFFEE3AFEED39FDD0E0FB2C
:1001460050130BBB00030203B8ED13FDEE13FEEFD5
:0801560013FFEC13FC020390FF
:10015E00EC4D6011E8497017ED33EC3304600DE49B
:10016E00FCFFFEFD22E933E8330470F80203AE1201
:10017E00037958046009E4CC248150062850090202
:10018E0003B82840030203B5C0E0EB4A7044B980BF
:10019E0006D0E0FB0203A4EF4E701CBD8008EBFFFF
:1001AE00EAFEE9FD80EBE98DF0A4FEE5F0020247E0
:1001BE00E9CDF9EAFEEBFFEF89F0A4FCE5F0CE897C
:1001CE00F0A42EFFE435F0CD89F0A42DFEE435F039
:1001DE008067EF4E7005BD80D780C3EF8BF0A4AC67
:1001EE00F0EE8BF0A42CFCE435F0F8EF8AF0A42CA2
:1001FE00E5F038FCE433CB8DF0A42CFCE5F03BF8B5
:10020E00EE8AF0A42CFCE5F038F8E433CF89F0A4A4
:10021E002CFCE5F038CF3400CE89F0A42FFFE5F0AA
:10022E003EFEE433C98DF0A42EFEE5F039CD8AF002
:10023E00A42FFFE5F03EFEE43DFD33D0E0FB50077A
:10024E000BBB000F0203B8EC2CFCEF33FFEE33FEBA
:06025E00ED33FD020390E8
:100264000203B8EC5D046005E8590470030203AEB0
:10027400120379580460F6EC4860F2EC7004FDFE59
:10028400FF22C860DB2481C85009C398600250066D
:100294000203B59850CAF582E9294B4A7005AB822E
:1002A4000203A475F0007C1A7880C3EF9BEE9AEDEC
:1002B40099400DC3EF9BFFEE9AFEED99FDE842F0E5
:1002C400DC23ACF0D0E0FFD0E0FED0E0FDAB822038
:1002D400E7101BEB60BAEC2CFCEF33FFEE33FEEDC2
:1002E40033FD020390E803F830E705C0F075F00031
:1002F400EF2FFFEE33FEED33FD40B830E7C280AAA6
:1003040075F020800E75F010800575F0087D007E74
:10031400007F003392D530D503120418EC3340101B
:10032400EF33FFEE33FEED33FDEC33FCD5F0ED227D
:0E033400E5F0247EA2D513CC92E7CDCEFF22B9
:10034200EDD2E7CD33EC3392D524814006E4FFFEB3
:10035200FDFC22FCE4CFCECDCC24E0501174FF8012
:10036200EDC3CC13CCCD13CDCE13CECF13CF0470AF
:07037200F030D5DE02041893
:10037900E9D2E7C933E833F892D5EDD2E7CD33ECCA
:0703890033FC5002B2D52243
:10039000EC30E7100FBF000C0EBE00080DBD0004CE
:1003A0000BEB6014A2D5EB13FCED92E7FD2274FF7A
:1003B000FCFDFEFF22E480F8A2D574FF13FC7D80D3
:0303C000E480EFE7
:03000000020B33BD
:0C0B3300787FE4F6D8FD75813E020B7A55
:1003C300BC000BBE0029EF8DF084FFADF022E4CC1E
:1003D300F875F008EF2FFFEE33FEEC33FCEE9DECE7
:1003E300984005FCEE9DFE0FD5F0E9E4CEFD22ED2D
:1003F300F8F5F0EE8420D21CFEADF075F008EF2F77
:10040300FFED33FD4007985006D5F0F222C398FD67
:050413000FD5F0EA2204
:0E041800C3E49FFFE49EFEE49DFDE49CFC22F5
:100B3F00020E61E493A3F8E493A34003F68001F25D
:100B4F0008DFF48029E493A3F85407240CC8C333B7
:100B5F00C4540F4420C8834004F456800146F6DF86
:100B6F00E4800B0102040810204080900C0BE47EFF
:100B7F00019360BCA3FF543F30E509541FFEE4937B
:100B8F00A360010ECF54C025E060A840B8E493A342
:100B9F00FAE493A3F8E493A3C8C582C8CAC583CA6D
:100BAF00F0A3C8C582C8CAC583CADFE9DEE780BE25
:010C520000A1
:00000001FF
