:1012ED00242532642C25342E32660D0A0023256404
:0E12FD002C25640D0A004552524F520D0A0076
:10106F00012800012D00012900012E00012A000195
:10107F0027010141010232000001261E01311E012C
:10108F002523013023012FFF012400C189C10BC18A
:0A109F000A014000013A000122009E
:0B14A100EF1FAC0670011E4C70F6221D
:080003008F993099FDC299228A
:101285008B438A448945AB43AA44A9451205256089
:10129500130545E5457002054414F9120525FF12AD
:0512A500000380E222BD
:1012AA00E4FFC2A9C2B5D2B420B2027F0D20B302B4
:1012BA007F0CD2B5C2B420B2027F1120B3027F10D4
:0212CA00D2A9A7
:0112CC0022FF
:10143200E4F542C2901214B5D2901214B50542E5F9
:0614420042C3940840EDD6
:011448002281
:101363001212107FCC12130B7F4412130BE4FD7F78
:0A137300607EEA1214A10DBD08F51A
:01137D00224D
:100DE900E4F542E5247003020EA1E53AC3940A50E2
:100DF90003020EA1E4F540F53A900000E0B4532255
:100E0900A3E0B4541D7546FF7547127548ED853446
:100E19004985354A853E4E853D4D853C4C853B4B44
:100E29008039900000E064507028A3E0644170228A
:100E3900A3E06452701CA3E0B441177546FF7547DF
:100E4900127548FA75490085254A754B0085264C67
:100E590080097546FF7547137548037B017A007948
:100E69000C1206727B017A00790C121285E4F542A4
:100E7900E542C39524501E74002542F582E43400EE
:100E8900F583E4F0740C2542F582E43400F583E43B
:080E9900F0054280DBE4F524C2
:010EA100222E
:1010B700E52675F064A4FFD3E52C9FE52B95F0405A
:1010C70005532FFE8003432F01C3E5359525E534EE
:1010D70094005005532FFD8003432F023009055319
:1010E7002FFB8003432F04E52FFD7C007F040211B3
:0110F70039BF
:1012CD00300917D3E5359525E53494005005754261
:0F12DD006680037542CCAF4280027F1412144921
:0112EC0022DF
:1010F800E52A703C752A01E52764017033E526B5B9
:101108003106E5256530602885312685302505338B
:10111800E53370020532E532853342FD7C007F01FC
:10112800121401E542FD7C00E4FF1214011214AC14
:011138002294
:10101E00E4F5D9F5E9F5F9C2AF121432D2AFD2DE4A
:10102E0030910330DFFAC2DE20DF2DAFF9EFFEADD7
:10103E00E9EDFFAC06E41201317B967A43798B78A9
:10104E003C12002612016A8E348F35D3E535946337
:10105E00E5349400400A8002C2DF753400753563B2
:01106E00225F
:100FB800E52870617528011212107FCC12130B7F7F
:100FC8004412130B1212107FCC12130B7FBE121394
:100FD8000B1213CD8F421213CDEFFEE542FFEE54F4
:100FE800F87032AD07AC06120131E4FBFA7980786B
:100FF8003D1200268F3E8E3D8D3C8C3BE4FFFE7DEE
:10100800C87C42AB3EAA3DA93CA83B12002612016F
:051018006A8E2B8F2CF5
:01101D0022B0
:100CCF00E52E6003020DE8752E011212AA8F3FE583
:100CDF003F6539FF553FF538E53FF45FF523853F15
:100CEF0039E538B40D02D20BE523640D7024C20B25
:100CFF00F536F537200A0D0527E527B403037527C9
:100D0F0001754101300A0BC20A300904C209800281
:100D1F00D209E538B40C02D20BE523640C704BC238
:100D2F000BF536F537200A1EE527B4010A0541E514
:100D3F0041B40403754101E527B4020A0541E541B9
:100D4F00B40303754101300A21C20AE4F532F533C9
:100D5F00E532853342FD7C007F01121401E542FD2F
:100D6F007C00E4FF1214011214ACE53864107032E9
:100D7F00E5276402702CE541B40110E531C39402FC
:100D8F004006153115318003E4F531E541B4021207
:100D9F00E530C39405400874FB2530F5308003E43B
:100DAF00F530E53864117031E5276402702BE541A9
:100DBF00B40110E531D3946150060531053180033C
:100DCF00753163E541B40211E530D3945E50077479
:090DDF00052530F5302275306362
:010DE80022E8
:100A8500E52D6003020CCE752D010529E529B41964
:100A950006E4F52912101E0522E522B40506E4F543
:100AA500221212CDE52764016003020C66E541645C
:100AB500016003020B397509C6750AFF750BFF75D1
:100AC5000CFFAE2BAF2C7C037DE812057D74722FD5
:100AD500F58274143EF583E493F50DAE2BAF2C7CB3
:100AE500007D6412057D7C007D0A12057D747C2DD8
:100AF500F58274143CF583E493F50EAE2BAF2C7C94
:100B0500007D0A12057D7C007D0A12057D74722D1B
:100B1500F58274143CF583E493F50FAE2BAF2C7C72
:100B2500007D0A12057D74722DF58274143CF583DF
:100B3500E493F510E541640270437509C7750AFF32
:100B4500750BFF750CFF750DFF750EFFAE34AF35D8
:100B5500FC7D0A12057D74722FF58274143EF583AF
:100B6500E493F50FAE34AF357C007D0A12057D7434
:100B7500722DF58274143CF583E493F510E5416418
:100B8500036003020C667509C8750AFF750BFFD370
:100B9500E533940FE5329427401BAE32AF337C2703
:100BA5007D1012057D74722FF58274143EF583E471
:100BB50093F50C8003750CFFD3E53394E7E5329488
:100BC500034022AE32AF337C037DE812057D7C0005
:100BD5007D0A12057D74722DF58274143CF583E44B
:100BE50093F50D8003750DFFD3E5339463E53294DA
:100BF500004022AE32AF337C007D6412057D7C005F
:100C05007D0A12057D74722DF58274143CF583E41A
:100C150093F50E8003750EFFD3E5339409E5329401
:100C2500004022AE32AF337C007D0A12057D7C0088
:100C35007D0A12057D74722DF58274143CF583E4EA
:100C450093F50F8003750FFFAE32AF337C007D0A3D
:100C550012057D74722DF58274143CF583E493F5C9
:100C650010E52764027062E5416401702B75098CFB
:100C7500750AFF750BFF750DFF750EFFE5419014A5
:100C85007293F50CE53175F00A8493F50FE531752E
:100C9500F00A84E5F093F510E5416402702B7509BF
:100CA5008C750AFF750BFF750DFF750EFFE54190FD
:100CB500147293F50CE53075F00A8493F50FE53061
:090CC50075F00A84E5F093F510C6
:010CCE002203
:10000E00538E7F5389F0758A18758CFCC28DD28CF5
:05001E00D2A9D2AF22BF
:10137E00759850538EBF538EFE53890F758BCC7557
:0B138E008DFFC2ABD28ED2AFD2AC22DA
:101399007DFF7C007F04121139E4FDFC7F051211E9
:0A13A9003912000E12137E021363C6
:10145E00121399120FB81210F8120DE9120CCF12C6
:04146E000A8580EF7C
:03000B00020F2EB3
:100F2E00C0E0C0F0C083C082C0D075D000C000C089
:100F3E0001C002C003C004C005C006C007052DE5F0
:100F4E002DB40A03752D000528E528B4C8037528AD
:100F5E0000052EE52EB40A03752E00052AE52AB4E7
:100F6E001903752A00300B080537E5377002053670
:100F7E00E5406002053AC3E53794E8E53694034050
:100F8E0008753600753700D20A1210B7121177D0D5
:100F9E0007D006D005D004D003D002D001D000D0A7
:0A0FAE00D0D082D083D0F0D0E03222
:030023000211B017
:1011B000C0E0C083C082C0D075D000C0073098198D
:1011C000754001753A00AF24052474002FF582E4C0
:1011D0003400F583E599F0C298D007D0D0D082D002
:0411E00083D0E032A6
:10147200C0F9A4B0999282F8809040792430191270
:0414820002780010DC
:0D10A9000809FFFFFFFFFFFFFFFF01080028
:0614B50000007F26DFFEAF
:0114BB00220E
:0814AC007F3B7E5ADEFEDFFCEF
:0114B4002215
:1011390053A01F8D80EF24FB601414601B146022E0
:1011490024037026E5A0541F4480F5A0801CE5A067
:10115900541F44A0F5A08012E5A0541F44C0F5A077
:0E1169008008E5A0541F44E0F5A053A01F220B
:101177007DFF7C007F0712113974017E00A80808E3
:101187008005C333CE33CED8F9FDAC067F061211E6
:101197003974092508F8E6FD7C000F121139050896
:0811A700E508B40803E4F508B3
:0111AF00221D
:0413B3007F057E0034
:1013B700EF1FAA0670011E4A600BE4FDEDC3940CF3
:0513C70050EE0D80F75F
:0113CC0022FE
:02130B00A90730
:10130D00E4FBC294E91392941213B3D294E9C3137C
:0C131D00F90BBB08ED7F057E000213B742
:1013CD00E4FBC294ECC313FCD29430940343048029
:0913DD001213B30BBB08EBAF04C3
:0113E60022E4
:10121000C200D2947F0C7E001213B7C2947F507E1E
:10122000001213B7D2947F0A7E001213B7A29492D1
:06123000001213B3A2003E
:011236002295
:0413E700D2A07F0A07
:1013EB00000000000000000000000000000000AE44
:0613FB00071FEE70EB225B
:0F148600D2A11213E7C2A17F0A1213EBC2A02258
:0C149500C2A11213E7D2A17F0A0213EBE0
:0211E400AD0755
:1011E600E4FCC2A07F0A1213EBED30E704D2A18023
:1011F60002C2A17F0A1213EBD2A0ED25E0FD7F0A01
:091206001213EB0CBC08DBC2A0C2
:01120F0022BC
:10132900E4FC1213E7ED25E0FD30A103430501C2FA
:0C133900A07F0A1213EB0CBC08E8AF0503
:011345002285
:0B1346001211E4121351AF031211E466
:101351001213E7A2A1E433FDC2A07F0A1213EBAF7F
:011361000586
:011362002268
:10141A00C2A0EF24FF92A17F0A1213EB1213E7C2B4
:08142A00A0D2A17F0A0213EB1E
:10144900AB071214867F901211E41213517F4012D8
:0514590013460214958A
:02123700AB0703
:10123900E4FD1214867F901213461214867F9112D0
:1012490011E4121351121329AD077F0112141A1256
:041259001495AF0534
:01125D00226E
:10140100AB05AA04A9071214867FA01211E41213D6
:0914110051AF01121346021495BB
:10002600EC4D6011E8497017ED33EC3304600DE4D4
:10003600FCFFFEFD22E933E8330470F80201D61214
:1000460001A158046009E4CC248150062850090215
:1000560001E02840030201DDC0E0EB4A7044B980AC
:1000660006D0E0FB0201CCEF4E701CBD8008EBFF12
:10007600EAFEE9FD80EBE98DF0A4FEE5F002010F52
:10008600E9CDF9EAFEEBFFEF89F0A4FCE5F0CE89B5
:10009600F0A42EFFE435F0CD89F0A42DFEE435F072
:1000A6008067EF4E7005BD80D780C3EF8BF0A4ACA0
:1000B600F0EE8BF0A42CFCE435F0F8EF8AF0A42CDB
:1000C600E5F038FCE433CB8DF0A42CFCE5F03BF8EE
:1000D600EE8AF0A42CFCE5F038F8E433CF89F0A4DE
:1000E6002CFCE5F038CF3400CE89F0A42FFFE5F0E4
:1000F6003EFEE433C98DF0A42EFEE5F039CD8AF03C
:10010600A42FFFE5F03EFEE43DFD33D0E0FB5007B3
:100116000BBB000F0201E0EC2CFCEF33FFEE33FECD
:06012600ED33FD0201B8FB
:10012C0075F020800E75F010800575F0087D007E4E
:10013C00007F003392D530D5031205D2EC3340103A
:10014C00EF33FFEE33FEED33FDEC33FCD5F0ED2257
:0E015C00E5F0247EA2D513CC92E7CDCEFF2293
:10016A00EDD2E7CD33EC3392D524814006E4FFFE8D
:10017A00FDFC22FCE4CFCECDCC24E0501174FF80EC
:10018A00EDC3CC13CCCD13CDCE13CECF13CF047089
:07019A00F030D5DE0205D2B2
:10061600E55A2446F8E6055A22784330070278461A
:10062600E475F0011205E00205252000EB7F2ED2CD
:10063600008018EF540F2490D43440D4FF30040BBC
:10064600EF24BFB41A0050032461FFE55B60021576
:100656005B055EE55E7002055D30070D7843E47567
:10066600F0011205E0EF02056B02125E7403D20779
:100676008003E4C207F55A8B438A448945E4F55B57
:10068600F55DF55EE55B60077F2012065180F57526
:100696005CFFC201C200C202C203C205C206C20892
:1006A60012061FFF700D3007057F00120662AF5E4F
:1006B600AE5D22B4255FC2D5C20412061FFF24D048
:1006C600B40A00501A75F00A785B30D50508B6FFF3
:1006D6000106C6A426F620D5047002D20380D924CA
:1006E600CFB41A00EF5004C2E5D20402094FD2017A
:1006F60080C6D20080C0D20280BCD2D580BAD205D4
:1007060080B47F201206512002077401B55B0040B9
:10071600F1120616FF12065102068AD208D2068088
:1007260095120616FB120616FA120616F94A4B70B1
:100736000679467A0A7BFF20022EE55B602A7E0058
:100746008E8275830012053E60060EEE655C70F0C3
:10075600C2D5EBC0E0EAC0E0E9C0E0EE1209AFD0D6
:10076600E0F9D0E0FAD0E0FB120525FF60AAEBC065
:10077600E0EAC0E0E9C0E0120651D0E02401F9D079
:10078600E03400FAD0E0FBE55C0460DCD55CD9809F
:1007960087D20280A212099260F7E55C700104120A
:1007A60001EBA95C600DE55C600914F55C120A3981
:1007B600EF60F3EA30E702F404C3995077EAF425D0
:1007C6005C0430E701E404F55C800D12099260C117
:1007D600EA055C255C1201EBEA7859F630E701E49C
:1007E600255C04D55C04200501141209AFE4C0E0C1
:1007F600120A397859E6601320E70714F61206390B
:10080600802204F6D0E014C0E07F00120639E55CD1
:100816006007120630155C800B300503120630D0D7
:10082600E002068AD0E00480C512099260A0E55C69
:10083600041201EB7859EAF6E55C20050260010432
:0508460024041209AFBB
:10084B0074FF04C0E0120A39120639E55C20050278
:10085B006003120630D0E0B55CE87F4512064378A2
:10086B0059E67F2B30E7047F2DF404C0E0120651CC
:10087B00D0E075F00A84C0F012063AD0E012063AC6
:10088B0002068A791080027908C206C2088008D253
:10089B00D5790A8004790AC2D5E55C047002F55C4F
:1008AB00E4FAFDFEFF120616FC7B0820011312066C
:1008BB0016FD7B1030000A120616FE120616FF7B81
:1008CB0020EC3382D592D55013C3E43000069FFF42
:1008DB00E49EFEE42001039DFDE49CFCE4CBF8C206
:1008EB0001EC700CCFCECDCCE824F8F870F3801768
:1008FB00C3EF33FFEE33FEED33FDEC33FCEB33FB99
:10090B00994002FB0FD8E9EB300105F8D0E0C44861
:10091B00B201C0E00AEC4D4E4F78207B0070C2EA6A
:10092B00B55C0040BCC0E01209B1D0F0D0E02001B2
:10093B0004C4C0E0C4B201C0F012063AD0F0D5F046
:10094B00EB02068A1205F0072753088E5806F84C5F
:10095B0006F44208924F089A44089A49070D430837
:10096B00A05507D146082F45079B470A665006FC42
:10097B002D07002E07232B0704230721200A4F2ABC
:10098B0006BC480000071BE55CB4FF03755C061250
:10099B000616FC120616FD120616FE120616FF7838
:1009AB005202021A790AA2D5200314300509B91094
:1009BB00020404B9080104A2D52006025001042048
:1009CB0002689202B55B005034C0E07F20300319FF
:1009DB007F30A20272067205500F120A08C202C2C1
:1009EB0006C205C2087F30800F300503E9C0E01254
:1009FB000651300503D0E0F9D0E0B55BCC300517DC
:100A0B007F30B9100C1206517F583004077F788065
:100A1B0003B908031206513002057F2D0206517FE0
:100A2B00202008F87F2B2006F322920280CF7F0034
:100A3B00B4070050052452F8E6FF22286E756C6C43
:100A4B002900D2011206163001F8C201785B30D5AD
:100A5B000108F60206BC2D50434958120616240312
:100A6B00B405004001E4900A6193120642743A12F5
:0A0A7B000642D203755B0402088EE8
:1001A100E9D2E7C933E833F892D5EDD2E7CD33ECA4
:0701B10033FC5002B2D5221D
:1001B800EC30E7100FBF000C0EBE00080DBD0004A8
:1001C8000BEB6014A2D5EB13FCED92E7FD2274FF54
:1001D800FCFDFEFF22E480F8A2D574FF13FC7D80AD
:0301E800E480EFC1
:1001EB00F920E72824F950037907E4F42402FB18DB
:1001FB00DBFDE624FB5014E9600DE4F618E604F68B
:0F020B00B40A08E4F6D9F57401F60A22C2D52226
:10021A00ED33EC3392D5FA602AB4FF33EDC2E77BB3
:10022A00FF60067A02793FE4227A02794820D504EF
:10023A007A027943224E614E002B494E46002D49DF
:10024A004E4600E47A08F608DAFC7B00740722E8D6
:10025A00C0E0ECC0E0EDC0E0EEC0E0EFC0E0EA755F
:10026A00F010A4CAABF075F04DA42BFBE435F0FCFA
:10027A00EA2410FAEB34C5FBEC34D9FCEDC2E7FFF3
:10028A0075F056A4F42411C5F0F434C58FF0A42AED
:10029A00E5F03BE43CF620E7141204E5D0E0FFD099
:1002AA00E0FED0E0FDD0E0FC1204188014F4041241
:1002BA0004E5D0E0FFD0E0FED0E0FDD0E0FC120083
:1002CA0026D0E0F8E6FAEDD2E7CD33EC332482FB10
:1002DA00E4C3CF33CFCE33CECD33CD33DBF37B077D
:1002EA0075F00A846004F6081B0AE5F0F6088FF038
:1002FA00740AA4FFACF08EF0740AA42CFEACF05081
:10030A00010C8DF0740AA42CFDE435F0F608DBDE4E
:03031A0074072243
:10031D000201D6E86480F8E933E83360110460F037
:10032D00ED33EC337009E8FCE9FDEAFEEBFF220446
:10033D0060DED3EB9FEA9EE99DE8C2E78CF0C2F741
:10034D0095F0400CE8CCF8E9CDF9EACEFAEBCFFB0D
:10035D001201A185D0F05804700320D5B3E80470C4
:10036D00075002B2D50201E092D5EC0460F7E4CC5F
:10037D00C0E0C398F8603B94186008400DD0E0FBD6
:10038D000201B8E4FBFAC9FC8028E830E406E4C9B0
:10039D00FBE4CAFCE830E305E4C9CACBFCE854072A
:1003AD006010F8C3E913F9EA13FAEB13FBEC13FC35
:1003BD00D8F130F52FC3E49CFCEF9BFFEE9AFEEDD8
:1003CD0099FDD0E0FBEF4E4D4C701222DB03020184
:1003DD00DDEC2CFCEF33FFEE33FEED33FDED30E7BE
:1003ED00EB0201B8EF2BFFEE3AFEED39FDD0E0FB4D
:1003FD0050130BBB00030201E0ED13FDEE13FEEFF6
:08040D0013FFEC13FC0201B81F
:100415000201E0EC5D046005E8590470030201D6B1
:100425001201A1580460F6EC4860F2EC7004FDFE80
:10043500FF22C860DB2481C85009C39860025006BA
:100445000201DD9850CAF582E9294B4A7005AB8255
:100455000201CC75F0007C1A7880C3EF9BEE9AED13
:1004650099400DC3EF9BFFEE9AFEED99FDE842F032
:10047500DC23ACF0D0E0FFD0E0FED0E0FDAB822085
:10048500E7101BEB60BAEC2CFCEF33FFEE33FEED0F
:1004950033FD0201B8E803F830E705C0F075F00058
:1004A500EF2FFFEE33FEED33FD40B830E7C280AAF3
:1004B5003F8000004120000042C80000447A00004F
:1004C500461C400047C35000497424004B189680D1
:1004D5004CBEBC205A0E1BCA6753C21C749DC5AEC8
:1004E500FB60065407601C2323120513EB54386088
:1004F500091204FF12050E120026ECF8EDF9EEFACA
:10050500EFCB22EB12050E80F1543803241C900426
:10051500B5FE93FC0EEE93FD0EEE930ECE93FF22E9
:03000000020EA24B
:0C0EA200787FE4F6D8FD75815E020EE951
:10052500BB010689828A83E0225002E722BBFE02D4
:09053500E32289828A83E4932207
:10053E00BB010CE58229F582E5833AF583E0225072
:10054E0006E92582F8E622BBFE06E92582F8E222BC
:0D055E00E58229F582E5833AF583E49322D6
:10056B00BB010689828A83F0225002F722BBFE016F
:02057B00F32269
:10057D00BC000BBE0029EF8DF084FFADF022E4CC62
:10058D00F875F008EF2FFFEE33FEEC33FCEE9DEC2B
:10059D00984005FCEE9DFE0FD5F0E9E4CEFD22ED71
:1005AD00F8F5F0EE8420D21CFEADF075F008EF2FBB
:1005BD00FFED33FD4007985006D5F0F222C398FDAC
:0505CD000FD5F0EA2249
:0E05D200C3E49FFFE49EFEE49DFDE49CFC223A
:1005E000FAE6FB0808E6F925F0F618E6CA3AF6221C
:1005F000D083D082F8E4937012740193700DA3A39A
:1006000093F8740193F5828883E4737402936860AD
:06061000EFA3A3A380DFAD
:10125E00EFB40A07740D121269740A309811A89926
:10126E00B8130CC2983098FDA899C298B811F630F0
:07127E0099FDC299F59922C8
:100EAE0002145EE493A3F8E493A34003F68001F2E8
:100EBE0008DFF48029E493A3F85407240CC8C33345
:100ECE00C4540F4420C8834004F456800146F6DF14
:100EDE00E4800B010204081020408090106FE47E25
:100EEE00019360BCA3FF543F30E509541FFEE49309
:100EFE00A360010ECF54C025E060A840B8E493A3D0
:100F0E00FAE493A3F8E493A3C8C582C8CAC583CAFA
:100F1E00F0A3C8C582C8CAC583CADFE9DEE780BEB2
:0110B6000039
:00000001FF
