:100D3900076080828486888A8C074F8183858789AA
:100D49008B8D072B40150522030524012401013E43
:070D59000101491E013FFFEB
:100CB900E4FD7F8E120ED3E4F50874602508F8E68A
:100CC900FF742B2508F8E6FD120ED30508E508C3C5
:0B0CD900940740E67D807F8E020ED362
:100CE4007F81120BF58F2B7F83120BF58F2C7F8561
:100CF400120BF58F2DE55660117F83120BF58F468D
:0B0D04007F85120BF58F42E4F55622AC
:0707C600E5567003020892E2
:1007CD00120D617FCC120DF17F44120DF112001E3E
:1007DD00120D6112001E7FCC120DF17FBE120DF1B4
:1007ED00120E628F08120E628F09EFF533E508F5D0
:1007FD0034E54E6006853347853448E508540FFCD3
:10080D00E412069CE4FBFA79C8784012058CC0040A
:10081D00C005C006C007E533C4F854F0C868FEE54E
:10082D0034C4540F48FF7C007D64120751AC06ADF3
:10083D0007E4120697D003D002D001D00012049B1A
:10084D001206D08E338F34754E01C3E5449534E5D1
:10085D004395335006853343853444E5326017E5BF
:10086D0034254BF54BE533354AF54A055CE55C70AF
:10087D0002055BE4F532AC21AD22AE4AAF4B120757
:05088D00638E408F4165
:010892002243
:100A6900E5567003020AF1C3E52A94C8E529940002
:100A79004073D3E52A94D0E529940750687532016B
:100A8900E5356006853B5D853C5EE52A25E0FFE5A9
:100A99002933FEEF2432FFE43EFE7C007D0A120773
:100AA900517D2D1207638E3B8F3C7535010522E57B
:100AB9002270020521E53C2527F527E53B3526F57A
:100AC90026C3E55A953CE559953B5006853B598522
:100AD9003C5AAC21AD22AE26AF271207638E578F41
:090AE90058E4F5392275390122A7
:100C2900E538702DE5456003854D4C7F01120D882F
:100C39008F4D754501E4F56AE54DC3948C5012E575
:100C49004C94BE400C7556017538018524287524CD
:020C5900042273
:100D0F00E4F543F544F54AF54BF533F534F540F585
:100D1F0041F559F55AF53BF53CF526F527F521F543
:0A0D2F0022F557F558F546F542226B
:10094400E524B40105533FFE8003433F01E524B48D
:100954000205533FFD8003433F02E524B4040553DD
:100964003FFB8003433F04E54975F064A4FFD3E5EE
:10097400349FE53395F040057567018005E4F5671C
:10098400F523E55F6015E53F20E305433F08800854
:10099400E53F30E003533FF7E4F55FE53960055385
:1009A4003FEF8003433F10D3E55C9402E55B940082
:1009B400401AE5489534E54795335010C3E55E95F4
:1009C4003CE55D953B5005533FDF8003433F20E505
:0909D4003FFD7C007F04020BAF23
:100E2C00E53FFD7C007F04120BAFE4FDFC7F051257
:0B0E3C000BAF120CB9120C5B020DD2C0
:100DAE00120E2CE56A6003120C29120A691207C68C
:100DBE00120CE4120944E524640460031208931231
:040DCE00001E80DFA4
:10001E00E52464017075E52DC4540F900EBF93FD59
:10002E007C007F01120B5CE52D540F900EBF93FDEB
:10003E007C007F02120B5C7DBF7C007F03120B5C89
:10004E00E52CC4540F900EBF93FD7C007F04120B61
:10005E005CE52C540F900EBF93FD7C007F05120BB8
:10006E005C7DBF7C007F06120B5CE52BC4540F90A9
:10007E000EBF93FD7C007F07120B5CE52B540F9097
:10008E000EBF93FD7C007F08120B5CE524640260BA
:10009E000302036BE53E640160030201A67DC6FC0C
:1000AE007F01120B5CE55C455B7003020170AE4391
:1000BE00AF447C037DE812076374BF2FF582740E84
:1000CE003EF583E493FD7C007F03120B5CAE43AFE1
:1000DE00447C007D641207637C007D0A1207637402
:1000EE00BF2DF582740E3CF583E493FD7C007F04F6
:1000FE00120B5C7DBF7C007F05120B5CAE40AF41E6
:10010E007C037DE812076374BF2FF582740E3EF5F3
:10011E0083E493FD7C007F06120B5CAE40AF417C06
:10012E00007D641207637C007D0A12076374C92D7B
:10013E00F582740E3CF583E493FD7C007F07120B71
:10014E005CAE40AF417C007D0A1207637C007D0AE5
:10015E0012076374BF2DF582740E3CF583E493FD94
:10016E00802F7DFF7C007F03120B5C7DFF7C007F68
:10017E0004120B5C7DFF7C007F05120B5C7DFF7C07
:10018E00007F06120B5C7DFF7C007F07120B5C7DEF
:10019E00FF7C007F08120B5CE53E640260030202E6
:1001AE00A37D89FC7F01120B5CE55C455B7003024D
:1001BE00026DAE59AF5A7C007D6412076374BF2F77
:1001CE00F582740E3EF583E493FD7C007F03120BE3
:1001DE005CAE59AF5A7C007D0A1207637C007D0A23
:1001EE0012076374BF2DF582740E3CF583E493FD04
:1001FE007C007F04120B5C7DBF7C007F05120B5CC4
:10020E00AE57AF587C007D6412076374BF2FF58222
:10021E00740E3EF583E493FD7C007F06120B5CAEFC
:10022E0057AF587C007D0A1207637C007D0A1207C7
:10023E006374C92DF582740E3CF583E493FD7C0046
:10024E007F07120B5CAE57AF587C007D0A12076316
:10025E0074BF2DF582740E3CF583E493FD802F7DE3
:10026E00FF7C007F03120B5C7DFF7C007F04120B72
:10027E005C7DFF7C007F05120B5C7DFF7C007F06A2
:10028E00120B5C7DFF7C007F07120B5C7DFF7C00F8
:10029E007F08120B5CE53E6403600302036B7D8EE8
:1002AE00FC7F01120B5CAE5BAF5C7C007D0A12071B
:1002BE006374BF2FF582740E3EF583E493FD7C00CC
:1002CE007F02120B5CAE5BAF5C7C007D0A12076393
:1002DE0074BF2DF582740E3CF583E493FD7C007F94
:1002EE0003120B5CE55C455B6046E542C4540F901F
:1002FE000EBF93FD7C007F04120B5CE542540F9001
:10030E000EBF93FD7C007F05120B5C7DBF7C007FD2
:10031E0006120B5CE546C4540F900EBF93FD7C0095
:10032E007F07120B5CE546540F900EBF93FD80269F
:10033E007DFF7C007F04120B5C7DFF7C007F05122D
:10034E000B5C7DFF7C007F06120B5C7DFF7C007FCB
:10035E0007120B5C7DFF7C007F08120B5CE52464AA
:10036E0003705B7D8CFC7F01120B5CE54975F00A16
:10037E0084900EBF93FD7C007F07120B5CE54975E0
:10038E00F00A84E5F0900EBF93FD7C007F08120BFF
:10039E005C7DFF7C007F02120B5C7DFF7C007F0387
:1003AE00120B5C7DFF7C007F04120B5C7DFF7C00DA
:1003BE007F05120B5C7DFF7C007F06120B5CE52433
:1003CE00640460030204937D86FC7F01120B5C7D46
:1003DE00FF7C007F02120B5C7DFF7C007F03120B03
:1003EE005CAE33AF347C037DE812076374BF2FF528
:1003FE0082740E3EF583E493FD7C007F04120B5C49
:10040E00AE33AF347C007D641207637C007D0A122C
:10041E00076374BF2DF582740E3CF583E493FD7C67
:10042E00007F05120B5C7DBF7C007F06120B5CE526
:10043E0039600D7D887C007F07120B5C7D88803EC5
:10044E00AE3BAF3C7C007D6412076374BF2FF58218
:10045E00740E3EF583E493FD7C007F07120B5CAEB9
:10046E003BAF3C7C007D0A1207637C007D0A1207BD
:10047E006374BF2DF582740E3CF583E493FD7C000E
:06048E007F08120B5C2246
:10089300D2C4D2C2D2B3D2B2C2B220C23C1200037B
:1008A30020C236E524B4020BE53EB40306753601D7
:1008B300E4F53A20C20512001E80F8E536B4010BB8
:1008C300E537B40106E4F536120D0FE524B4030948
:1008D300E549D394004002154920C41D12000320AA
:1008E300C41720C40512001E80F8E524B4020A05CB
:1008F3003EE53EB40403753E01D2B2C2B320C21D2D
:1009030012000320C21720C20512001E80F8E5243E
:10091300B4030A0549E549B4640375496320C42057
:1009230012000320C41A20C40512001E80F80524F7
:10093300E524B40403752401E524B40203753E01E0
:010943002291
:03000B0002000EE2
:0D000E00C0E00569E56970020568D0E032C8
:03001B00020AF2E4
:100AF200C0E0C0D0056CE56C7002056B0525E536DB
:100B02006002053AE5386002053DE56760020523AB
:100B1200E56C6414456B700E85682985692AF56851
:100B2200F569F56BF56CE525B40406752500756A63
:100B320001E53AB42806753A00753701E53DB43C43
:100B420009753D00753800852824E523B402067531
:0A0B52002300755F01D0D0D0E0321F
:100EBF00C0F9A4B0999282F8809040792430191229
:040ECF000278001095
:040003007F39DFFE64
:0100070022D6
:0B0F2100EF1FAC0670011E4C70F622A2
:100BAF0053A01F8D80EF24FC601214601914602075
:100BBF001460272407702B53A01F8026E5A0541F15
:100BCF004480F5A0801CE5A0541F44A0F5A080121E
:100BDF00E5A0541F44C0F5A08008E5A0541F44E0D1
:060BEF00F5A053A01F2237
:100B5C00AB078D828C83EB14FF74017E00A8070811
:100B6C008005C333CE33CED8F9FDAC067F06120B0D
:100B7C00AFAD82AC830F120BAF7FF47E01120F214D
:100B8C00EB14FF74017E00A807088005C333CE3335
:100B9C00CED8F9FDAC067F06120BAF7DFF7C000FA3
:030BAC00020BAF8A
:100DD200538E7F758916758AFF758CFF758BAF757B
:0F0DE2008D3CD2AFD2A9D2ABC28DD28CD28E2291
:040E93007F057E0059
:100E97007C007D0C120751EF1FAC0670011E4C70D1
:010EA700F654
:010EA8002227
:100D6100C200D2947F0C7E00120E97C2947F507EF7
:100D710000120E97D2947F0A7E00120E97A29492CF
:060D810000120E93A20017
:010D87002249
:020DF100AB074E
:100DF300E4FAC294EB139294120E93D294EBC313BE
:0C0E0300FB0ABA08ED7F057E00020E9786
:100E6200E4FAC294EBC313FBD2943094034303809D
:090E7200120E930ABA08EBAF035B
:010E7B002254
:100C5B00120D617FCC120DF17F44120DF1120D615B
:100C6B007FCC120DF17FBE120DF1120E62A907128D
:100C7B000E62EFC454F0FFE9C4540F4FFF6455608C
:010C8B00DC8C
:010C8C002245
:100EE700E4FEC297EF1392A3EFC313FFD2970EBE90
:020EF70008F001
:010EF90022D6
:100ED300C29300C29700D29300120EE7AF05120E21
:040EE300E7C29322AD
:100BF500E4FDC29300C29700D29300120EE7E4FF12
:100C0500C297EDC313FD30A303430580D2970FBFF1
:100C150008EEC29300C29700D29700C2A300D2A3E8
:030C250000AF0518
:010C280022A9
:040F0900D2A07F05EE
:080F0D0000AE071FEE70F9228F
:0F0EFA00D2A1120F09C2A17F05120F0DC2A022B3
:0C0F1500C2A1120F09D2A17F05020F0D2E
:100E7C00C2A0A20092A17F05120F0D120F09C2A0F1
:070E8C00D2A17F05020F0D4A
:0A0E4700AB07120EFA7F90120C8D1B
:100E5100120F09A2A19200C2A07F05120F0DA200DC
:010E6100226E
:020C8D00AD07B1
:100C8F00E4FCC2A07F05120F0DED30E704D2A18066
:100C9F0002C2A17F05120F0DD2A0ED25E0FD7F0549
:090CAF00120F0D0CBC08DBC2A001
:010CB8002219
:100E0F00E4FC120F09ED25E0FD30A103430501C2FB
:0C0E1F00A07F05120F0D0CBC08E8AF0509
:010E2B0022A4
:100D8800120E47AF03120C8D120E51120EFA7F91FC
:100D9800120C8D120E51120E0FAD07D200120E7CDE
:050DA800120F15AF055C
:010DAD002223
:100EA900120E477F40120C8D120E51AF03120C8D9A
:060EB900120E51020F159C
:1004940002073CE86480F8E933E83360110460F053
:1004A400ED33EC337009E8FCE9FDEAFEEBFF2204CE
:1004B40060DED3EB9FEA9EE99DE8C2E78CF0C2F7C9
:1004C40095F0400CE8CCF8E9CDF9EACEFAEBCFFB95
:1004D40012070785D0F05804700320D5B3E80470E0
:1004E400075002B2D502074692D5EC0460F7E4CC7B
:1004F400C0E0C398F8603B94186008400DD0E0FB5E
:1005040002071EE4FBFAC9FC8028E830E406E4C9CB
:10051400FBE4CAFCE830E305E4C9CACBFCE85407B1
:100524006010F8C3E913F9EA13FAEB13FBEC13FCBC
:10053400D8F130F52FC3E49CFCEF9BFFEE9AFEED5F
:1005440099FDD0E0FBEF4E4D4C701222DB03020705
:1005540043EC2CFCEF33FFEE33FEED33FDED30E7DF
:10056400EB02071EEF2BFFEE3AFEED39FDD0E0FB68
:1005740050130BBB0003020746ED13FDEE13FEEF11
:0805840013FFEC13FC02071E3B
:10058C00EC4D6011E8497017ED33EC3304600DE469
:10059C00FCFFFEFD22E933E8330470F802073C123D
:1005AC00070758046009E4CC24815006285009023E
:1005BC000746284003020743C0E0EB4A7044B98069
:1005CC0006D0E0FB020732EF4E701CBD8008EBFF3B
:1005DC00EAFEE9FD80EBE98DF0A4FEE5F00206757C
:1005EC00E9CDF9EAFEEBFFEF89F0A4FCE5F0CE894A
:1005FC00F0A42EFFE435F0CD89F0A42DFEE435F007
:10060C008067EF4E7005BD80D780C3EF8BF0A4AC34
:10061C00F0EE8BF0A42CFCE435F0F8EF8AF0A42C6F
:10062C00E5F038FCE433CB8DF0A42CFCE5F03BF882
:10063C00EE8AF0A42CFCE5F038F8E433CF89F0A472
:10064C002CFCE5F038CF3400CE89F0A42FFFE5F078
:10065C003EFEE433C98DF0A42EFEE5F039CD8AF0D0
:10066C00A42FFFE5F03EFEE43DFD33D0E0FB500748
:10067C000BBB000F020746EC2CFCEF33FFEE33FEF6
:06068C00ED33FD02071E24
:1006920075F020800E75F010800575F0087D007EE3
:1006A200007F003392D530D5031207B8EC334010E7
:1006B200EF33FFEE33FEED33FDEC33FCD5F0ED22EC
:0E06C200E5F0247EA2D513CC92E7CDCEFF2228
:1006D000EDD2E7CD33EC3392D524814006E4FFFE22
:1006E000FDFC22FCE4CFCECDCC24E0501174FF8081
:1006F000EDC3CC13CCCD13CDCE13CECF13CF04701E
:07070000F030D5DE0207B85E
:10070700E9D2E7C933E833F892D5EDD2E7CD33EC38
:0707170033FC5002B2D522B1
:10071E00EC30E7100FBF000C0EBE00080DBD00043C
:10072E000BEB6014A2D5EB13FCED92E7FD2274FFE8
:10073E00FCFDFEFF22E480F8A2D574FF13FC7D8041
:03074E00E480EF55
:030000000209DD15
:0C09DD00787FE4F6D8FD75816C020A24D6
:10075100EF8DF0A4A8F0CF8CF0A428CE8DF0A42EBC
:02076100FE2276
:10076300BC000BBE0029EF8DF084FFADF022E4CC7A
:10077300F875F008EF2FFFEE33FEEC33FCEE9DEC43
:10078300984005FCEE9DFE0FD5F0E9E4CEFD22ED89
:10079300F8F5F0EE8420D21CFEADF075F008EF2FD3
:1007A300FFED33FD4007985006D5F0F222C398FDC4
:0507B3000FD5F0EA2261
:0E07B800C3E49FFFE49EFEE49DFDE49CFC2252
:1009E900020DAEE493A3F8E493A34003F68001F269
:1009F90008DFF48029E493A3F85407240CC8C3330F
:100A0900C4540F4420C8834004F456800146F6DFDD
:100A1900E4800B0102040810204080900D39E47E27
:100A2900019360BCA3FF543F30E509541FFEE493D2
:100A3900A360010ECF54C025E060A840B8E493A399
:100A4900FAE493A3F8E493A3C8C582C8CAC583CAC4
:100A5900F0A3C8C582C8CAC583CADFE9DEE780BE7C
:010D60000092
:00000001FF
